:100000000C94EA010C94E5180C9407020C94070276
:100010000C9407020C9407020C9407020C9407023C
:100020000C9407020C9407020C94041E0C94D81E26
:100030000C9464170C9407020C9407020C940702AA
:100040000C9407020C9407020C9407020C9407020C
:100050000C9407020C9407180C9407020C940702E6
:100060000C9407020C9407020C9407020C940702EC
:100070000C9407020C9407020C9407020C940702DC
:100080000C9407020C9407020C9407020C940702CC
:100090000C9407020C9407020C9407020C940702BC
:1000A0000C9407020C9407020C94070229001E000E
:1000B0001F0020002100220035002B0014001A0030
:1000C0000800150017003400E000040016000700C7
:1000D00009000A003800E1001D001B00060019009D
:1000E00005004C003900E300E200437E417E2C0015
:1000F00028002A00270026002500240023002E00C7
:100100003100130012000C0018001C002D00280004
:1001100033000F000E000D000B000500E50052003B
:10012000370036001000110028004F005100500029
:10013000E600427E2C002A0044003A003B003C00CE
:100140003D003E00460035022F023002200221020F
:1001500022022D02E0002F003000200021002200AA
:100160004C00E100230024002500260027002C007D
:100170002B00E300E2003504417E2C004C004C00D3
:1001800027002600250024003F00460038002D00EF
:1001900023002200210023022E0225022E0220002D
:1001A0001F001E000B002A00E50028003700270072
:1001B00027002B0028004D004B004E004A00427ED5
:1001C00028002A0044003A003B003C003D003E006D
:1001D0002F0235021E0252002002210222022D02AD
:1001E0002B00500051004F00210022004C00E10084
:1001F000230024002500260027002C00E000E30057
:10020000E2003504417E2C004C00450043004200D2
:10021000410040003F003002310227022602250241
:10022000240223022E02340233020F000E000D00BE
:100230000B002A00E50038023702360210001100D8
:1002400028004D004B004E004A00427E28002A0044
:100250000100010001000100010001000100010096
:10026000007C2078217824782378010001000100A7
:10027000027806780478037801000100010001008B
:100280000100010001000100010001000100010066
:100290000100010001000100010001000100010056
:1002A00001000100010001002778287825782678D0
:1002B0000100010001000100010001000100010036
:1002C0000100010001000100010001000100010026
:1002D00001000100010001000100010020034500B0
:1002E000720067006F004400610073006800200026
:1002F00072006500760031002E00320000000C0311
:100300004F006D006B0062006400000004030904EC
:1003100009023B00020100A0FA09040000010301E8
:100320000100092111010001224400070581030891
:10033000000109040100010300000009211101006E
:100340000122320007058203200001120100020091
:10035000000008EDFE6060000101020001050109D6
:1003600080A101850319012AB700150126B7009560
:100370000175108100C0050C0901A1018504190156
:100380002AA002150126A002950175108100C00562
:10039000010906A101050719E029E71500250195C6
:1003A0000875018102950175088101050719002969
:1003B000FF150026FF009506750881000508190144
:1003C0002905150025019505750191029501750313
:1003D0009101C00011241FBECFEFDAE0DEBFCDBF18
:1003E00011E0A0E0B1E0EEEEF2E402C005900D9263
:1003F000A43AB107D9F722E0A4EAB1E001C01D9206
:10040000A63AB207E1F70E9481140C9436210C94AD
:1004100000000E94D91008950895CF93FB01813404
:100420002EE79207F1F038F480349E4791F0C1E056
:100430008C2FCF91089582342EE79207F1F0833408
:100440009E47A9F7C58183E0CC2311F10E949A074A
:1004500006C0C581CC2361F380E00E94C902C0E0E0
:10046000E7CFC58181E0CC2359F00E949A0743E091
:1004700062E081E00E94E508F2CFC58182E0F3CF1F
:100480000E94AA0743E062E081E00E94E508D0CF25
:100490000E94AA07CDCF8430B8F46A30A8F4473060
:1004A00098F450E097E0699F400D511D1124FA0126
:1004B00096E4899FE00DF11D1124EE0FFF1FE45516
:1004C000FF4F85919491089581E090E008950E94F6
:1004D0004B02089581E008950E946A02089581E028
:1004E00008950E940D02089508950E9474020895CF
:1004F000A6E0B0E0EEE7F2E00C94A62049835A8330
:100500009E833091AB0189819A8131111AC03E815D
:10051000332399F0222389F00E946008182F682F56
:1005200089819A810E943C0869817A81812F0E9489
:10053000760F2696E3E00C94C2200E944E08182FF6
:10054000F3CF0E94600869817A81F1CFFC01262FE8
:100550004081518162817381848195810E947802FA
:100560000895CF93DF93EC0161E00E94A602BE01E3
:100570000E946C02DF91CF910895CF93DF93EC013D
:1005800060E00E94A602BE010E947502DF91CF9139
:100590000895CF93DF93C1E0D0E002C0CC0FDD1F00
:1005A0008A95E2F78C2F0E94EB0CCE010E945E0729
:1005B000DF91CF9108950E9411070E940C022FEF46
:1005C00084E39CE0215080409040E1F700C00000AF
:1005D00008950E94DB020E942B1808950E94DB02FE
:1005E0000E943C1808950F931F93CF93DF938C01C3
:1005F00061E00E94A602EC01B8010E947102811123
:1006000006C080E0DF91CF911F910F910895B8014E
:10061000CE010E9415168823A1F3B801CE010E94D5
:10062000AB14882371F3B801CE010E94871588238B
:1006300041F3F8018581882361F0C330FCE7DF07CF
:10064000E9F058F4C115ECE7DE07A9F0C130DC474A
:10065000B9F0C8010E946F02D5CFCB358CE7D8071F
:10066000A9F0CC35ECE7DE0771F0CA35DC4789F735
:100670000E94C70CEECF0E94E902C3CF0E94CF0CAC
:100680000E94EE02BECF0E94BD0CE3CF0E94CB0CB5
:10069000E0CF0E9441170E94700308950E947403E6
:1006A0000E9446170895089581E008950895CF9314
:1006B000DF93D82F0E945403C82F882319F08D2F61
:1006C0000E9456038C2FDF91CF9108950895CF9308
:1006D000C82F0E9453038C2F0E945703CF91089577
:1006E00080E00E94670308950E945E160E946703DF
:1006F0000895CF930E945E16C82F8091A6018C1793
:1007000079F0C093A6010E94D0176093A70170935F
:10071000A8018093A9019093AA018C2F0E946703DE
:10072000CF910895ADE0B0E0E8E9F3E00C94A720A4
:10073000488759876A877B878C879D8791110E949C
:10074000F50B1F8286E0FE013896DE0111960190BE
:100750000D928A95E1F78D8181110DC029813A8131
:100760004B815C816D817E818F810E94280B2D964B
:10077000E2E00C94C320CE0101960E94B1028111E7
:10078000EDCFF5CFFC012481213021F480819181CE
:100790000E9492080895CF93C82F8823C9F0823809
:1007A000C9F40E94721681FD13C089E30E94AD0B4B
:1007B0000E942E0C2FEF87EE93E021508040904056
:1007C000E1F700C0000089E30E94B50B0E942E0CE7
:1007D000CF9108958338A1F40E94721680FDF8CF5E
:1007E00083E50E94AD0B0E942E0C2FEF81EE94E06A
:1007F000215080409040E1F700C0000083E5E4CF45
:100800008438A1F40E94721682FDE2CF87E40E9430
:10081000AD0B0E942E0C2FEF81EE94E02150804012
:100820009040E1F700C0000087E4CECF8CEF8C0F42
:10083000813A90F46C2F80910001909101010E9407
:10084000DC16882329F08C2F0E94B50B0E942E0CF9
:100850008C2F0E94AD0BBACF80E28C0F883048F409
:10086000C77081E001C0880FCA95EAF70E94D80BD3
:10087000ADCFEBE5EC0FE33040F4F0E0E65AFE4F8D
:10088000808190E00E948016A3CFC85ACB3108F037
:100890009FCFEC2FF0E0EE0FFF1FEC5DFE4F80814D
:1008A00091810E94A51694CF882309F44DC0823807
:1008B00079F40E94721681FF47C089E30E94AD0B54
:1008C0000E942E0C89E30E94B50B0E942E0C089505
:1008D000833859F40E94721680FF36C083E50E9467
:1008E000AD0B0E942E0C83E5EECF843859F40E94A4
:1008F000721682FF29C087E40E94AD0B0E942E0C65
:1009000087E4E1CF9CEF980F913AE8F290E2980FDC
:10091000983050F4877091E001C0990F8A95EAF7FA
:10092000892F0E94DE0BD1CF9BE5980F933028F4DE
:1009300090E080E00E9480160895885A8B3120F460
:1009400090E080E00E94A51608951F93CF93DF9357
:10095000182FEB010E94CB03209739F4812F0E94BE
:100960005404DF91CF911F9108958FE99FE0019783
:10097000F1F700C000002197EFCF70E060E089330D
:1009800011F460E570E00E94A5040895882321F029
:100990000E94D80B0E942E0C0895882321F00E94FB
:1009A000DE0B0E942E0C0895B0E0A0E0EAEDF4E02A
:1009B0000C94A0206C01D62FC72FFC011581068155
:1009C00002950F700E94CE0BE82E8823E9F0E12EED
:1009D0001123D1F08C2F807F803451F080E28D0F75
:1009E0008830F8F0011104C08C2F807E8032C9F06D
:1009F00080917E0282FF15C082E00E94910C0E94CD
:100A0000CE0B91E0E82EE926BC2EB2949FE0B922ED
:100A1000FBE0FB15B8F1EB2DF0E0E85CFE4D0C942B
:100A20009120E12CF1CF0C2F0F70C07F11F00295B7
:100A3000007F112399F0002359F080E28D0F883058
:100A400010F0D11107C0802F0E94D80B0E942E0CED
:100A50008D2F5AC0802F0E94E80BF8CF8D2F0E9457
:100A60005404002379F080E28D0F883010F0D1110A
:100A700004C0802F0E94DE0B03C0802F0E94EE0B6B
:100A80000E942E0CEB2DE850FF0B349720F40E94AF
:100A90005E160E946703EE2089F00E94CA0B80FD5B
:100AA0000DC0F60115820E94C40B0E949A07C60170
:100AB0000E94DC060E94C40B0E94AA07CDB7DEB7D5
:100AC000E9E00C94BC202C2F2F70F22EC07FC03296
:100AD00019F0F29480EFF822DD2341F0D130D1F10A
:100AE000112309F444C00023F1F0B2CF80917E02BB
:100AF00082FD15C0112359F0FF2029F08F2D0E948F
:100B0000D80B0E942E0C80E00E94CB03BBCF80E06C
:100B10000E945404FF2009F4B5CF8F2DABCF1123D1
:100B200069F0011104C08F2D0E94C604ABCF0130C3
:100B300009F0A8CF8F2D0E940C0CA4CF0111A2CFD9
:100B40008F2D0E94CD048F2D0E94180C8F2D0E9496
:100B5000FC0B98CF112321F0063008F093CFE3CFA0
:100B6000053008F08FCF8F2D0E94CD048BCF00234E
:100B7000D1F3D93349F43FEF87EE93E03150804011
:100B80009040E1F700C000008D2F0E9454047ACFFE
:100B90008C2F86958695837069F0813009F072CF2D
:100BA0008D2F9C2F9370111102C080E090E00E9465
:100BB000A51668CF8D2F9C2F9370111102C080E075
:100BC00090E00E9480165ECF8C2F8370A1F51111EA
:100BD00059CF4D2F429546954770440F440F2D2F06
:100BE0002F7030E0042E02C0220F331F0A94E2F768
:100BF00090E080E0D4FF09C08FE090E002C0880F51
:100C0000991F4A95E2F780959095C695C695C37051
:100C1000822B932BC23049F058F4C13019F00E9456
:100C20006A0730CF0E9461072DCF0E9473072ACF39
:100C30000E945E0727CF8695112311F08C2F8170BB
:100C4000882309F41FCF4D2F429546954770440FD6
:100C5000440F2D2F2F7030E0042E02C0220F331FBF
:100C60000A94E2F790E080E0D4FF09C08FE090E0C2
:100C700002C0880F991F4A95E2F780959095C69516
:100C8000C695C370822B932BC23049F058F4C13003
:100C900019F00E94D507F6CE0E94CC07F3CE0E9431
:100CA000DE07F0CE0E948207EDCECF70112329F02F
:100CB0008C2F0E949A078D2F37CF8D2F0E94CD0445
:100CC0008C2F0E94AA07DECED23F41F160F4D03FC4
:100CD000B9F0D13F81F0112309F446C00111B8CE1B
:100CE0008C2F8F711FC0D33F01F1D43FA1F78091AA
:100CF0007E0282FD24C08C2F8F71112311F312C04C
:100D0000112341F0053008F0BDCE8C2F8F710E9469
:100D1000BC07B8CE063008F0B5CEF7CF8C2F8F7158
:100D20001111CFCF0E949A07ADCE112329F08C2F3D
:100D30008F710E948E07A6CE0E948907A3CE112331
:100D400049F0CF718C2F0E949A0763E08C2F0E948C
:100D5000730C98CE81E00E94910C023008F492CE80
:100D600082E00E94910C8ECE002359F0D93309F015
:100D70000BCFEFEFF7EE23E0E150F0402040E1F73A
:100D800001CF8C2F8F719DCF0F931F93CF93DF9344
:100D9000EC01688179818D810E949D088C010E94FF
:100DA000E7070E945D07B801CE010E94D404DF91DD
:100DB000CF911F910F910895CF93DF93EC018C8118
:100DC000882399F0CE010E94F302811111C00E9484
:100DD000CE0B882351F08D81882339F080917E02DB
:100DE00082FF03C082E00E94910CDF91CF910895B1
:100DF000CE010E94C406CE010E94BD02F6CF90E053
:100E000080E00E94801690E080E00E94A5160E947B
:100E1000F50B0E942E0C08950E94BD0B0E94FF0648
:100E200008950E94E50B0E940C07089592959F700B
:100E3000963091F058F4925F9F70923058F4803F52
:100E400019F030F4883E30F481E008959A5FF4CFD1
:100E5000843FD1F380E00895883EB0F3813FD1F71D
:100E6000F3CFFC012481222339F0808191810E94FB
:100E700092080E941607089580E00895A6E0B0E069
:100E8000E4E4F7E00C94A7202696E2E00C94C3205B
:100E9000A7E0B0E0EEE4F7E00C94A7202796E2E0AC
:100EA0000C94C32008950E94520708950E9453078E
:100EB0009093D3018093D201089508950E9456071C
:100EC00008952091D2013091D301822B932B0E945F
:100ED000560708952091D2013091D30182239323A4
:100EE0000E94560708952091D2013091D3018227A4
:100EF00093270E94560708950E94520708950E9462
:100F00007C0708950E947F079093D1018093D001C0
:100F1000089590E080E00E948207089521E030E08B
:100F2000A90102C0440F551F8A95E2F7CA010E9429
:100F30008207089521E030E002C0220F331F8A9516
:100F4000E2F78091D0019091D101822B932B0E94E6
:100F50008207089521E030E002C0220F331F8A95F6
:100F6000E2F7209530958091D0019091D1018223B4
:100F700093230E948207089521E030E002C0220FEF
:100F8000331F8A95E2F78091D0019091D101822799
:100F900093270E94820708952091D0013091D101BA
:100FA000822B932B0E94820708952091D0013091CB
:100FB000D101822393230E94820708952091D001BA
:100FC0003091D101822793270E94820708950895C6
:100FD000262F277091E001C0990F2A95EAF723E0A8
:100FE000769567952A95E1F7660F771F660F771F4D
:100FF000FA01E60FF71F50E040E0682F70E08191A2
:10100000DF0111979B01042E02C0369527950A94A3
:10101000E2F7217021952827292328272C934F5F59
:101020005F4F4430510559F70895A82FA77023E06A
:10103000969587952A95E1F7880F991F880F991F34
:10104000FB01E80FF91F50E040E080E0219130E023
:101050000A2E02C0369527950A94E2F721703327AD
:10106000042E01C0220F0A94EAF7822B4F5F5F4FD4
:101070004430510559F70895262F9A3070F487307F
:1010800060F4682F70E087E0989F600D711D112457
:101090004CEA51E0822F0E94E8070895292F9A30E8
:1010A00068F4873058F490E06CEA71E037E0239FF1
:1010B000800D911D11240E941508089580E0089567
:1010C000B0E0A0E0E6E6F8E00C94A0207C010091FE
:1010D000D0011091D1018091D2019091D301082BC0
:1010E000192BCFE0D0E0CC24C394D12CBC2EC60168
:1010F0000C2E02C0880F991F0A94E2F780239123D7
:10110000892B49F4219790F7B12C8B2DCDB7DEB701
:10111000E9E00C94BC20B7018C2F0E94820F01974C
:1011200089F3F3CFCF93DF93EC010E946008BE01F7
:101130000E94820FDF91CF9108951F93CF93DF9389
:10114000EB019091AB01992339F0CB010E949208F9
:10115000DF91CF911F910895882369F0CB010E9400
:101160006008182F682FCE010E943C08BE01812F15
:101170000E94820FEDCFCB010E944E08182FF6CFB0
:10118000E1E0F0E0DF0102C0AA0FBB1F6A95E2F7C1
:10119000BD01DF0102C0AA0FBB1F4A95E2F7AD01F6
:1011A000462B572B02C0EE0FFF1F2A95E2F79A013C
:1011B000282339232417350719F48E2B9F2B0895E4
:1011C000E095F0958E239F230895242F462F682FB6
:1011D0008091D0019091D1010E94C0080E948207A5
:1011E00008951F93CF93DF93C091D40117E08091AE
:1011F000D5018C1304C0DF91CF911F910895D0E0E9
:101200001C9FF0011D9FF00D1124EA52FE4F20811A
:101210003181428153816481758186810E944807B2
:101220002196C770E4CF20910E0230910F024091B9
:10123000100250911102609112027091130280917C
:1012400014020E9448070895CF93DF9380911402FF
:10125000807F09F04DC080911302882309F448C0B3
:10126000E091D4015091D501C0910F02D0910E02AE
:10127000609110027091110247E05E17C9F18E2F44
:1012800090E0E49FF0011124EA52FE4F24812223D2
:1012900091F1489FF001499FF00D1124DF01AA52FE
:1012A000BE4F11962C9111972C1325C02C912D1304
:1012B00022C015962C91159721111DC012962D91C3
:1012C0003C91261B370B28373105A8F48091140276
:1012D0008F70806180931402E452FE4F80818F7082
:1012E000806180838EE092E00E94DC060E94F1081B
:1012F000DF91CF910895FC013196E770BECF482F62
:101300002091D4019091D50157E0291302C080E0CB
:10131000089530E0529FF001539FF00D1124EA52DE
:10132000FE4F8181681306C08081481303C0858108
:101330008111EECF2F5F3F4F2770E7CFA4E1B0E0E0
:10134000E4EAF9E00C949D208C0186E0F801DE01CE
:101350001F9601900D928A95E1F7F8018481E5804E
:101360009EE0A92E92E0B92E9091120291111FC019
:101370008823D1F0EE20A9F0C8010E943107F82E91
:10138000882379F087E0F801D50101900D928A95C4
:10139000E1F7C5010E94C2030E9424090E941309BB
:1013A0005FC0C8010E94DC06FF24F39459C0C080CE
:1013B000D18082809380F0901302209110023091AE
:1013C0001102A401421B530BFF2009F4F9C0483756
:1013D000510508F0A7C0882309F442C090910F027C
:1013E00080911402282F207F09F05CC09D1116C047
:1013F00090910E02C91212C0E1104EC08F70806130
:10140000809314020E9413098EE092E00E94DC0691
:1014100080911402F8018683F12C22C0E1103CC0B7
:101420006D2D8C2D0E947F096D2D8C2D0E947F09C2
:10143000E82E8111F1CFCF86D88A8F8598890E94B6
:101440009208292F22952F70243078F49F70223033
:10145000A8F09923B9F0F8019681907F99F4FE2CB9
:101460008F2D6496ECE00C94B9202A5F2F70223007
:1014700068F0C8010E94DC06EF2CF1CF992311F02F
:10148000882369F3805E883050F3F3CF803F38F3D0
:10149000815F833070F7E3CF809114028160809385
:1014A0001402BACF9D1113C090910E02C9120FC041
:1014B000E1100DC08683C8010E94DC0687E0F801B8
:1014C000AEE0B2E001900D928A95E1F767CFC801D6
:1014D0000E943107882309F464CFEE2009F461CF1C
:1014E00080911402803288F020910E0230910F0218
:1014F000398728879B868A86909112029C871D8651
:101500008E87CE0108960E94DC0687E0F801AEE0E7
:10151000B2E001900D928A95E1F70E9424090E94A1
:10152000130942CF90911402292F207FA1F4682D36
:101530009A8A898AA6017A899E2D0E943E078EE0AA
:1015400092E00E94DC0687E0F50111928A95E9F7A6
:101550000E94130961CF882309F482CF80910F0282
:101560008D1110C080910E02C8120CC0E1100AC08B
:101570009683C8010E94DC0687E0F50111928A95E6
:10158000E9F76ECFC8010E943107882309F409CF1B
:10159000EE2009F406CF80911402803208F4B5CF12
:1015A00020910E0230910F023A8329839C828B8214
:1015B000909112029D831E828F83CE010196A3CF4C
:1015C00048375105B8F5882309F4EECEFE2CEE20FD
:1015D00009F4E7CE80910F028D111EC080910E029A
:1015E000C8121AC08091140280FD0DC0982F907F00
:1015F00051F08683903F09F45ECF982F907F905FE3
:101600008F70892B57CF87E0F801AEE0B2E00190F0
:101610000D928A95E1F724CFC8010E94310781110C
:1016200074CF80911402816080931402C8010E94DB
:10163000DC0616CF682D9A8A898AA6017A899E2DA2
:101640000E943E0787E0F50111928A95E9F7A6CE40
:10165000AEE0B0E0EEE2FBE00C94A62028873987EC
:101660004A875B876C877D878E87CE0108960E94AC
:101670009E098823B1F06C85662341F02885398561
:101680004A855B857D858E850E94480717E080919D
:10169000D4019091D50189133DC02E96E3E00C94BE
:1016A000C22087E0FE013896DE01119601900D926E
:1016B0008A95E1F78C85882349F32091D50130E0A4
:1016C000C9010196877099274091D40148171906DE
:1016D00099F097E0929FD001939FB00D1124AA52E8
:1016E000BE4FFE01319601900D929A95E1F78093DD
:1016F000D5010E94F108CACF0E9411071092D501AE
:101700001092D40187E0EEE0F2E0DF011D928A95AD
:10171000E9F7BCCF819FC00111248A529E4F0E94DD
:101720009E09882309F4B9CFE091D4011E9FF001EE
:101730001124EA52FE4F208131814281538164811C
:10174000758186810E9448078091D40190E00196BE
:10175000877099278093D4019ACF682F80910001D8
:10176000909101010E9412170895682F8091000145
:10177000909101010E9415170895809100019091A8
:1017800001010E941817089580911D028695869583
:101790008695089580911D028770089590911D028D
:1017A000977081E009F480E00895809129020895FE
:1017B00090912902892B8093290208958095909118
:1017C00029029823909329020895109229020895DE
:1017D00090912802892B80932802089580959091FA
:1017E00028029823909328020895109228020895C1
:1017F00008950E94F80B089590911E02292F282326
:1018000031F08095892380931E020E94F90B089580
:1018100008950E94080C089590911F02292F2823F3
:10182000281729F0982B90931F020E94090C089505
:1018300090911F02292F282331F0809589238093CE
:101840001F020E94090C089580911F02882329F02D
:1018500010921F0280E00E94090C0895CF93DF933D
:10186000E0910001F0910101809129028083E091D3
:101870000001F0910101808190912802892B8083E1
:1018800090911F02992381F0E0910001F0910101F4
:101890008081892B808380910001909101010E94B9
:1018A000CA1681110E94240CC0910001D09101013F
:1018B00048E050E065E172E0CE010E94CE20892B25
:1018C00059F088E0FE01A5E1B2E001900D928A9501
:1018D000E1F7CE010E947516DF91CF91089508952A
:1018E0000E946F0C089590917E0292FF11C098E0C3
:1018F000899F90011124622B60931D020E949A0718
:1019000080911D028695869586950E94700C08959B
:101910000E949A07089510921D0280E00E94700CA8
:10192000089590911D028095892380931D02282F90
:10193000277069F4891759F090917E0292FF07C0D1
:101940008695869586950E94AA070E948B0C08951D
:1019500090917E0292FB222720F9281769F080FBE4
:1019600092F990937E0280917D0290917E020E9476
:10197000F60C82E00E94910C089580917E0282FB19
:10198000882780F991E089270E94A80C089581E0BA
:101990000E94A80C089580E00E94A80C08956FEFA3
:1019A0007FEF90E080E00E942021089590E080E0A9
:1019B0000E94EC2021E0863E9E4F09F020E0822F1D
:1019C000089582E090E00E94E420089583E090E092
:1019D0000E94E4200895682F83E090E00E94022195
:1019E000089584E090E00E94EC200895BC0184E01A
:1019F00090E00E9420210895AB01BC018FE090E0AF
:101A00000E9414210895AB01BC0183E190E00E9483
:101A10001421089560E070E0CB010E94030D089549
:101A200060E070E0CB010E94FC0C0E940A0D08955A
:101A3000A8E0B0E0EEE1FDE00C94A72066EE7EEFBA
:101A400090E080E00E94202160E082E090E00E942F
:101A5000022160E083E090E00E9402211092D30115
:101A60001092D20160E074E184E090E00E942021B5
:101A700060E086E090E00E9402216FEF87E090E056
:101A80000E94022140E050E0BA0188E090E00E940C
:101A9000142160E084E290E00E94022160E087E18E
:101AA00090E00E94022160E08CE090E00E94022120
:101AB00060E08DE090E00E94022119821A821B8270
:101AC0001C821D821E821F82188648E050E068E159
:101AD00070E0CE0101960E94F22040E050E0BA0191
:101AE00080E290E00E9414210E94100D2896E2E00E
:101AF0000C94C3200E94180D0895682F8EE090E08A
:101B00000E9402210895A6E0B0E0E9E8FDE00C940F
:101B1000A5200E94C4178C0180912A0290912B026B
:101B20008017910781F019821A820E94C417682FCA
:101B300049815A81792F80E090E00E9492031093AE
:101B40002B0200932A022696E4E00C94C1200E9406
:101B50009E1060933A0270933B0280933C029093F4
:101B60003D0260933602709337028093380290935F
:101B700039020895089508950E94BA0D08950895B0
:101B80000E94BF0D089581E0089588EB90E10E94C6
:101B90008E140E94BB0D0E94BC0D08950E947D1200
:101BA0000895089508950E94D10D0E94D20D0895C0
:101BB0000E94BB100E94660308950E94BB170E94FA
:101BC00078100E9498120E94DE110E94D80D0E9487
:101BD00093140E94A2120E94C00D0895A6E0B0E0E6
:101BE000E4EFFDE00C949E200E94C30D81110AC019
:101BF0000E94830D0E947D120E9479032696EBE0DD
:101C00000C94BA200E9401128CE2A82E82E0B82E19
:101C1000750110E0F70101917F01812F0E94DE1014
:101C20001F5F1A3009F441C00817A1F380913E02EA
:101C300081FD0E94E4100E94CE0DC82E10E0992470
:101C40009394812F0E94DE10082FF50181915F018E
:101C5000081729F1D02ED826F12CEE24E3948D2DEF
:101C60008E21A9F0CC2099F0F9821A830E94C41722
:101C70009C838B839D8291E0802F8E2109F490E0DC
:101C800049815A816B817C818D810E949203F394FA
:101C9000EE0CF7E0FF12E3CFF501319700831F5FF1
:101CA0001A3079F60E94A70DA5CF0813BFCFA0CF99
:101CB0001F93CF93DF930E94870FEC01C11580E53E
:101CC000D807F0F5C11580E4D80708F09CC0C03EE5
:101CD000D10520F5CD3CD10508F082C0C83AD10528
:101CE00078F4C53AD10508F073C0C130D10519F1B7
:101CF000209709F1C430D105F0F4D0E0C0E01BC05A
:101D0000C33CD105D0F7C85AD0E0CC0FDD1FC35A71
:101D1000DE4F0990D881C02DD4640DC0C11580E27A
:101D2000D80708F0D1C0C11581E0D80708F05AC023
:101D3000C83ED10510F7CE01DF91CF911F910895D4
:101D4000C03682E5D80718F5C03482E5D80708F018
:101D50006BC0C03282E5D80708F05FC0C11582E5CC
:101D6000D80708F497C02C2F2695269580E2289F47
:101D7000900111248C2F8370C1E0D0E002C0CC0F01
:101D8000DD1F8A95E2F7C22BD32BDD68D4CFC03A92
:101D900082E5D80760F4C03882E5D80708F459C056
:101DA000CF71D0E0DC2FCC27C46FD06AC4CFC03C49
:101DB00082E5D80708F462C0C03E82E5D80708F083
:101DC0009CCFDC2FCC27CC27DF71C06FD06AB3CF7C
:101DD000C55AD0E0CD56DE4FC881D0E0D064ABCF3D
:101DE000D065A9CF8D2F0E942910182FCE019927D9
:101DF0000E94870FC12FD0E0DC2FCC27CC27DF71CA
:101E0000C82BD92B98CFCE0199270E94870FCC27BA
:101E1000DF70C82BD92BD06A8ECFCF71D0E0DC2FEA
:101E2000CC27C16FD06A87CF2C2F26952695277097
:101E300080E2289F900111248C2F8370C1E0D0E0B4
:101E400002C0CC0FDD1F8A95E2F7C22BD32BDC68D2
:101E500072CF2C2F26952695277080E2289F90011F
:101E600011248C2F8370C1E0D0E002C0CC0FDD1FA5
:101E70008A95E2F7C22BD32BDA685DCF8C2F8F7156
:101E80000E942910C82FD0E0DC2FCC27CC27DF718F
:101E9000D06251CF8C2F8F710E94291055E0D695BA
:101EA000C7955A95E1F7CF70D0E0DC2FCC27282FCB
:101EB00030E084FF05C044E0220F331F4A95E1F76C
:101EC000C22BD32BD06937CF8D2F8F710E94291051
:101ED000182FCE0199270E94870FC12FD0E0DC2F49
:101EE000CC27CC27DF71C82BD92BD2CF462F7A3005
:101EF00030F4673020F4672F0E946702089590E065
:101F000080E008950E94760F0E94580E089582384E
:101F10009105B9F1B0F48133910509F47DC048F41D
:101F20008932910509F46DC08A32910509F47BC0AC
:101F300008958533910509F45FC08933910509F14E
:101F40000895833E9105D9F138F4803E910529F139
:101F5000823E910579F10895863E9105D9F1873E3B
:101F6000910509F43EC0843E910541F520917E0221
:101F700021FF24C080917D0284FD19C087EE90E08E
:101F8000089520917D02237009F05AC020917E02AD
:101F900023FF14C089E290E0089520917D0220FD86
:101FA00038C030917E0230FF09C024FF43C090E06A
:101FB00080E0089520917D0222FDF7CF08952091C1
:101FC0007D0222FD3AC030917E0230FD39C024FFEF
:101FD000F5CFEDCF20917D0223FFF0CF24FDE7CF99
:101FE000CDCF20917D0223FD2EC030917E0231FFA6
:101FF000EECF84EE90E0089520917D0225FFDECFA4
:10200000C9CF20917D0225FD21C020917E0223FFB2
:10201000D5CF89E390E0D2CF20917D0226FFCECFAD
:102020008AE290E0089520917D0226FFC7CF81E3E8
:1020300090E0089583EE90E0089582EE90E0089598
:1020400080EE90E0089586EE90E0089585E390E0BC
:10205000089590917D0292FF10C041E0282F2471D5
:10206000243009F040E031E0282F2871283009F0B1
:1020700030E0431711F02CE0822793FF10C041E0BD
:10208000282F2471243109F040E031E0282F2871F5
:10209000283109F030E0431711F02CE0822730910D
:1020A0007E0230FF10C051E0282F2171213009F04D
:1020B00050E041E0282F2871283009F040E0541703
:1020C00011F029E0822731FF10C041E0282F217153
:1020D000213109F040E031E0282F2871283109F042
:1020E00030E0431711F029E0822794FD877E0895A0
:1020F0001092790210927A0210927B0210927C0266
:102100000895CF92DF92EF92FF926B017C010E94C3
:102110007D1281110EC00E94D017C61AD70AE80A94
:10212000F90AC0927902D0927A02E0927B02F09290
:102130007C02FF90EF90DF90CF9008950F931F9354
:102140000E947D12882329F00E94D0171F910F91C1
:1021500008950E94D0170091790210917A0220917F
:102160007B0230917C02600F711F821F931FEECFA4
:1021700080E0089508950E94D60C811102C00E944B
:102180007A0D0E94E10C80933E020E94F10C909324
:102190007E0280937D020E94BA100E94E60C90E0BD
:1021A0000E945E078091D0019091D1010E947F072B
:1021B0000895089508950E94DA100895E82FF0E038
:1021C000E657FD4F80810895089580EA8A95F1F7DA
:1021D000089500C008950E94E510089508950E9492
:1021E000EE100895A5E0B0E0E8EFF0E10C94A32034
:1021F0000E947D12F82E60919402882309F440C059
:1022000085E0E82E8E010F5F1F4FF8018E2D119291
:102210008A95E9F7862F90E0B80186579D4F0E9476
:10222000B0128823B9F080917F0290E045E050E041
:10223000B80186579D4F0E94CE2021E020933F0297
:10224000892B91F4F12C0E94DB108F2D2596E6E06E
:102250000C94BF2080913F028823A1F3F8011192D2
:10226000EA94E9F710923F02A0917F02B0E0A657EE
:10227000BD4F85E0F80101900D928A95E1F7E3CF1B
:1022800070E066577D4F80917F0290E086579D4FAA
:102290000E9437130E94EF10D8CFF894E82FE295F0
:1022A000EF70F0E031A1282F2F7081E090E001C0A5
:1022B000880F2A95EAF7982F9095932391A392A1DE
:1022C000892B82A378940895CF93DF93CDE9D1E051
:1022D00089918F3F11F00E944D1181E0C23AD807D9
:1022E000B9F7C6E9D1E089918F3F11F00E944D11F5
:1022F00081E0CD39D807B9F7DF91CF910895B0E0EB
:10230000A0E0E5E8F1E10C94A120EC01D62E062F27
:1023100010E0C80183569E4F7C01FC0180818F3FF5
:1023200009F445C0F894E82FE295EF70F0E091A130
:102330008F7021E030E001C0220F8A95EAF7892FE3
:10234000822B81A382A12095282322A378940E9426
:10235000E910E6E9F1E04DE951E031E0C12C2191CD
:102360002F3F51F1A22FA295AF70B0E090968C91C3
:1023700090E02F7002C0959587952A95E2F780FD31
:102380001BC0832FC82A330F4E175F0741F7F70191
:1023900080818F3F11F00E944D1161E0C11001C09A
:1023A00060E08D2D0E94EB10C00FD11FC882CDB709
:1023B000DEB7E8E00C94BD2080E0E4CF809102011C
:1023C0008091020195E0811190E09093940285E064
:1023D000891B80937F020E9464118AE0EAE8F2E0A0
:1023E000DF01982F1D929A95E9F7E0E8F2E0DF010E
:1023F0001D928A95E9F785E00E943F120E9409022A
:102400000895AAE0B0E0E7E0F2E10C94A4208E0188
:102410000F5F1F4F8AE0F80111928A95E9F7F12CBE
:102420006F2DC8010E947F11F394F5E0FF12F8CFE1
:102430004AE050E0B80180E892E00E94CE2021E01E
:10244000009709F420E0892B41F08AE0F801A0E828
:10245000B2E001900D928A95E1F76091940270E0EC
:1024600066577D4F45E080E892E00E944012182FA9
:102470000E94F210812B2A96E5E00C94C02008956A
:10248000CF92DF92EF92FF920F931F93CF936C0145
:102490007B01042F222349F081E0809342020E94B5
:1024A000C4179093410280934002C0914202C1112F
:1024B0000AC0C0E08C2FCF911F910F91FF90EF9039
:1024C000DF90CF90089580914002909141020E9448
:1024D000DC17059770F310E0A801B601C7010E9450
:1024E000CE20892B41F0A801B601C7010E94DB2054
:1024F00010924202DFCFC0E0FBCF809145028111F4
:1025000007C00E948420882351F081E08093450217
:1025100081E090914502913009F080E0089582E0D9
:10252000809345020E947F20F3CF0E947D12089580
:102530000E949512809302010E947D1281110E94D7
:10254000E61208950E947D12811102C00E94E912D4
:10255000089581E0909146029A3008F080E0089555
:102560000F931F93CF93DF93EC018B018091460271
:102570008A30B8F4B801CE010E943413C82F8111FB
:1025800022C0809146028F3FB9F40E94C4179093F5
:102590004402809343028C2FDF91CF911F910F91C2
:1025A000089580914302909144020E94DC17843F79
:1025B000914000F7C0E0EFCF8F5F809346028A30F2
:1025C00020F7C1E0E8CF10924602E5CF0E949F18A5
:1025D00008950E94A2180895B0E0A0E0E2EFF2E1B1
:1025E0000C94A2207901C82F880FDD0B41155105ED
:1025F000A9F0FE0193E0EE0FFF1F9A95E1F7ED5F62
:10260000FE4F81819281895B9D4F208130E042178E
:10261000530708F49A01A9010E94DB20CE010E9411
:102620008B19D82E8823D1F001151105B9F083E05C
:10263000CC0FDD1F8A95E1F7FE01ED5FFE4F438170
:1026400050E00417150708F4A801CD5FDE4F6C8138
:102650007D81695B7D4FC7010E94DB208D2DCDB749
:10266000DEB7E7E00C94BE200E94261408950E9475
:102670003D140895A4E0B0E0E0E4F3E10C94A5205B
:1026800060915E0270915F028091600290916102A0
:102690000E94EB1711E0643671058105910518F170
:1026A0000E949E106E5F7F4F8F4F9F4F69837A838A
:1026B0008B839C8310E000E030E020E044E050E0B9
:1026C000BE016F5F7F4F82E00E94EC12182F8823BB
:1026D00051F00E94D01760935E0270935F02809366
:1026E000600290936102812F2496E4E00C94C12053
:1026F000B0E0A0E0EEE7F3E10C949F207C015B01E9
:102700006A010E94A91201E010E0882311F00AE09A
:1027100010E0C1E0D0E0B501C701F60109958111D3
:1027200004C021960C171D072CF4CDB7DEB7EAE0E4
:102730000C94BB20CC9F9001CD9F300D300D112407
:1027400090E080E045E34A95F1F70000019682179A
:102750009307C1F7E0CFA6E0B0E0E1EBF3E10C9422
:102760009F207B01C090A201D090A30101E010E066
:102770009E012A5F3F4F50E040E070E060E080E063
:102780000E94EC12182F882309F448C056018FEFDD
:10279000A81AB80A60915A0270915B0280915C029B
:1027A00090915D020E94EB176436710581059105D9
:1027B00068F105E010E09E012F5F3F4F50E040E0E0
:1027C00070E060E081E00E94EC12D82E65E070E0DD
:1027D000C5010E94941411E09E81981310E01D2100
:1027E00041F10E94D01760935A0270935B0280936C
:1027F0005C0290935D0285E0FE013196A5E5B2E0B2
:1028000001900D928A95E1F711E013C065E070E048
:10281000C5010E9494149E818913CBCF85E0F601F7
:102820003196DE01119601900D928A95E1F7111112
:10283000E2CF85E0E5E5F2E0D70101900D928A95BF
:10284000E1F7812F2696EAE00C94BB200F931F93AB
:10285000CF93DF93EC018B014BEA53E10E94781395
:10286000882331F04AE353E1B801CE010E94781386
:10287000DF91CF911F910F9108950F931F93CF93E5
:10288000DF93C091A201D091A301CE01019625E072
:10289000FB01DC0101900D922A95E1F765E070E003
:1028A0000E94941488836E817F8188859985009128
:1028B000510210915202209153023091540260173C
:1028C00071078207930751F060935102709352028F
:1028D00080935302909354020E948110DF91CF9114
:1028E0001F910F9108950E94551B0E94DD0D0E94BB
:1028F000621B08950E94671B0E94EE0D0E94811BBF
:1029000008950E945D170E943B1B0E94C50D0E9406
:1029100073140E947A140E94D30DFBCF9093A501EB
:102920008093A40108950895FC01680F791F8FEF2B
:1029300091E36E177F0709F408952191822728E01B
:1029400030E087FF06C0880F892721503109C9F779
:10295000F0CF880FFACFCF93DF93EC01FB01858195
:10296000882309F4D2C09E0130572332310508F084
:10297000B2C00E94F10C90937E0280937D02FE0112
:10298000E150F047E232F10520F4EC5BFE4D0C948F
:10299000912080917D02816080937D0293C080911F
:1029A0007E02886080937E028DC080917D0282606D
:1029B000F3CF80917D028460EFCF80917D028860AB
:1029C000EBCF80917E028160EDCF80917E028260AC
:1029D000E9CF80917D028061DFCF80917D028062AE
:1029E000DBCF80917D028064D7CF0E941107809158
:1029F0007D028068D1CF80917D028C60CDCF8091A7
:102A00007E028360CFCF80917D028E7FC5CF809183
:102A10007E02877FC7CF80917D028D7FBDCF809161
:102A20007D028B7FB9CF80917D02877FB5CF80916A
:102A30007E028E7FB7CF80917E028D7FB3CF809153
:102A40007D028F7EA9CF80917D028F7DA5CF809161
:102A50007D028F7BA1CF0E94110780917D028F772D
:102A60009BCF80917D02837F97CF80917E028C7F68
:102A700099CF80917D0282FB992790F921E09227DE
:102A800090FB82F990FB83F987CF80917E02982F8B
:102A9000909591708E7F892B90FB81F983CF9091D7
:102AA0007D02892F8F7B96FF806476CF0E9411076D
:102AB00090917D02892F97FB87F980586DCF81E037
:102AC0000E947D0D80917D0290917E020E94F60C05
:102AD0000E94110780E0DF91CF91089580E0F0CF50
:102AE00090917D02892F8F7E94FF806155CF9091C8
:102AF0007D02892F8E7F90FF81604ECF90917E0264
:102B0000892F877F93FF88604DCF81E0E4CFCF93FB
:102B1000DF93EB0186319C4711F50E94D50B9D8117
:102B2000992399F08A7A91E009F490E090936202F7
:102B3000811109C089E20E94AD0B0E942E0C80E039
:102B4000DF91CF91089585E3F6CF809162028111E4
:102B500004C089E20E94B50BF0CF85E3FBCF81E092
:102B6000EFCF0F931F93CF93DF93C42FD22FFC018E
:102B700085818823C9F0409365020E94C417909311
:102B800064028093630280E28C0F883040F4C77047
:102B900081E001C0880FCA95EAF70E94C604DF9160
:102BA000CF911F910F91089510916502141332C0B7
:102BB00080916302909164020E94DC17883791052E
:102BC00048F5C0E2CD0F1D17B9F080E2810F8830C3
:102BD00040F4177081E001C0880F1A95EAF70E944F
:102BE000CD04C83048F481E09D2F977001C0880F54
:102BF0009A95EAF70E94C604802F0E94BD04C8304F
:102C000070F6D77081E001C0880FDA95EAF70E946C
:102C1000CD04C5CF80E28C0F883008F6C77081E004
:102C200001C0880FCA95EAF7F2CF0F93DB018851F4
:102C30009C4787309105A0F5FC01EA59FE4D0C94A4
:102C4000912006E221EE41EE6AE17CE7CD010E948F
:102C5000B11580E00F91089507E225EE45EE6BE196
:102C60007CE7F4CF06E221EE40EE68E17CE7EECFB0
:102C700007E225EE44EE69E17CE7E8CF06E221EECB
:102C800042EE6CE17CE7E2CF07E225EE46EE6DE135
:102C90007CE7DCCF08E221E045EE6EE17CE7D6CFB1
:102CA00015968C91882319F010926502D3CF81E09C
:102CB000D1CF90936C0280936B0208950E947D1295
:102CC000811103C0809166020895E0916B02F0913A
:102CD0006C02309729F00190F081E02D099508955C
:102CE00080E008950E945E160895E0916B02F091D5
:102CF0006C02309721F00280F381E02D0995089550
:102D0000A3E0B0E0E6E8F6E10C94A7202091690288
:102D100030916A0228173907A1F090936A028093D4
:102D20006902E0916B02F0916C02309751F023E060
:102D300029839B838A830680F781E02DCE0101964B
:102D400009952396E2E00C94C320A3E0B0E0EBEAFF
:102D5000F6E10C94A72020916702309168022817B1
:102D60003907A1F09093680280936702E0916B02AB
:102D7000F0916C02309751F024E029839B838A8381
:102D80000680F781E02DCE01019609952396E2E0B9
:102D90000C94C3209C012E5F3F4FAC01485F5F4FF6
:102DA00080E02417350709F40895F90191919F01F6
:102DB0009923B9F38F5FF5CF662349F0FC01329672
:102DC00008962191261729F0E817F907D1F780E036
:102DD000089581E008959C01FC0132969FEF80E008
:102DE0004191461751F09F3F19F4411101C0982FAE
:102DF0008F5F8630A9F79F3F09F40895290F311D91
:102E000097FD3A95F90162830895FC013296089680
:102E10002191261303C0DF0111971C92E817F907CF
:102E2000B9F708950E94EB1608950E9405170895BA
:102E3000029626E0FC0111922A95E9F7089508957B
:102E40000E941F170895811106C081E080936D02D2
:102E50000E942017089582E0F9CF83E080936D02ED
:102E60000E94201708950E942317089581E08093FF
:102E70006D020E94201708950E9436170895089544
:102E800008950E9440170895089508950E943F17DD
:102E90000895CF930E9444170E9401120E94451783
:102EA000C0E08C2F0E94DE10811105C0CF5FCA30B8
:102EB000C1F7CF91089581E0FCCF85B7806885BFC9
:102EC00085B7806885BF08951F921FB61F92112491
:102ED0008F939F93AF93BF9380916E02811113C024
:102EE0008091950290919602A0919702B0919802DC
:102EF0004196A11DB11D8093950290939602A093D7
:102F00009702B0939802BF91AF919F918F911F90BC
:102F10001FBE1F90189580919D02843031F10E9450
:102F2000490310926E0288E190E020E40FB6F89415
:102F3000A895809360000FBE2093600083B7817FC7
:102F4000846083BF83B7816083BF7894889583B79B
:102F50008E7F83BF0FB6F894A8958091600088613A
:102F600080936000109260000FBE08950E941107C8
:102F70000E944E03089582E084BD93E095BD9AEFD0
:102F800097BD80936E0008952FB7F89480919502B5
:102F900090919602A0919702B09198022FBF089548
:102FA0002FB7F894609195027091960280919702E4
:102FB000909198022FBF08959C014FB7F89480918B
:102FC000950290919602A0919702B09198024FBFFE
:102FD000821B930B0895CF92DF92EF92FF922FB74F
:102FE000F894C0909502D0909602E0909702F090ED
:102FF00098022FBFA7019601261B370B480B590BD0
:10300000CA01B901FF90EF90DF90CF9008957894B6
:103010001F921FB61F9211248F939F93AF93BF935C
:103020008091950290919602A0919702B09198029A
:103030000196A11DB11D8093950290939602A093D5
:103040009702B0939802BF91AF919F918F911F907B
:103050001FBE1F90189587E797E79093010880930C
:10306000000888E19AE00FB6F894A8958093600074
:103070000FBE90936000FFCF88E19AE00FB6F894FE
:10308000A895809360000FBE90936000FFCF8EE103
:10309000489B02C08150E1F7489BFECF08955898A5
:1030A00080E28A95F1F7589A0895FC013BE03A9541
:1030B000F1F798E020E080E031E040E14A95F1F757
:1030C000880F489B02C08160232742E04A95F1F7B0
:1030D000000040E14A95F1F7915079F790E19A9517
:1030E000F1F799B132E03A95F1F7000040E14A95E5
:1030F000F1F7917092272081920F90830895A1E0BB
:10310000B0E0E5E8F8E10C94A32019828C017C0181
:10311000E60EF11C0E151F0541F481E09981911115
:1031200080E02196E6E00C94BF200E944718CE0173
:1031300001960E945518F80181938F01EBCF509AA8
:10314000589A08955098589AE89AE9E6F0E08081F4
:103150008C7F808308956150770B91E001C0990FB7
:103160006A95EAF720E031E0911108C0222391F03E
:10317000589A80E28A95F1F758980895492F482384
:1031800039F0589A232740E24A95F1F79695ECCF0B
:103190005898F9CF5898EDCFFF920F931F93CF9384
:1031A000DF93EC018C01060F111DC017D10729F424
:1031B000CDB7DEB7E5E00C94C020F9900E944F181F
:1031C00068E08F2D0E94AB18F0CF1F920F920FB6C0
:1031D0000F9211240F931F932F933F934F935F935D
:1031E0006F937F938F939F93AF93BF93EF93FF93CF
:1031F000CF93DF930F92CDB7DEB719820E944718A5
:10320000CE0101960E945518082F06950695069541
:10321000282F22952570902F9570290F922F93704B
:1032200026952695920F982797708981982B09F0FB
:103230005CC0043008F059C080E18A95F1F7589AD3
:10324000509A82E08A95F1F700C0589888E0089F6C
:1032500080011124D801AD5FBE4F1696ED91FC910F
:1032600017973097A9F06091A2017091A30114966D
:103270002D913C911597260F371F11968D919C919A
:103280001297680F791F13964C9113978C9109959B
:10329000F801ED5FFE4F6381662351F02091A2019A
:1032A0003091A30184819581820F931F0E94CC18D5
:1032B0000E944F1880E18A95F1F758985098589AD3
:1032C00080E18A95F1F7F801ED5FFE4F608166239A
:1032D00051F02091A2013091A30181819281820F4E
:1032E000931F0E947F180E9447180F90DF91CF9183
:1032F000FF91EF91BF91AF919F918F917F916F91CE
:103300005F914F913F912F911F910F910F900FBEA1
:103310000F901F9018950F931F93CF93DF93EC019D
:1033200004970CF04CC0F894509A589885E08A9510
:10333000F1F700009C2F969595708C2F8570980F53
:10334000892F83709695969523E0CC0FDD1F2A95E3
:10335000E1F7980F8E01092B0E944F1800C068E01A
:10336000802F0E94AB1880E18A95F1F75098589A07
:10337000489B1EC087E090E048991CC0FE01ED5FAD
:10338000FE4F63816623F9F02091A2013091A301E1
:1033900084819581820F931F0E947F18811113C031
:1033A000509A589A7894DF91CF911F910F91089578
:1033B00000C0DECF019729F4509A589A789480E0A3
:1033C000F2CF00C0D9CF0E94471880E28A95F1F76A
:1033D0005898509A80E18A95F1F7CD5FDE4F688169
:1033E000662351F02091A2013091A30189819A8135
:1033F000820F931F0E94CC180E944F18789481E08E
:10340000D2CF80917702089508959B01BA019091DF
:103410009D029430E9F48F708093E9009FEF8091D2
:10342000E800915085FD06C085ED8A95F1F7000012
:103430009111F5CF8091E80085FF0AC050E040E08F
:10344000C9010E94F81B8091E8008E778093E80004
:10345000089543E050E0BC0182E00E94051A0895FF
:10346000CF93DF93EC0148E050E0BC0181E00E9483
:10347000051A88E0FE01AFE6B2E001900D928A9550
:10348000E1F7DF91CF91089580919C02811109C0ED
:103490000E94881D0E94E51D8091E2008460809357
:1034A000E200089510929C0208950E943617089534
:1034B0006091990281E0611101C080E00E942D17A6
:1034C000089590919D0281E0943009F080E0609130
:1034D00099020E943317089542E061EC81E00E9456
:1034E000041D42E261EC82E00E94041D90919D0265
:1034F00081E0943009F080E0609199020E942317E6
:10350000089580919F02833009F461C030F48130C6
:10351000D1F1823009F49EC008958A3009F48AC03E
:103520008B3009F46FC0893009F050C080919E0241
:10353000813209F04BC08091A2029091A3020297C0
:1035400008F044C08091E800877F8093E800809174
:10355000E80082FF37C09091F3008091F20002975B
:1035600031F48091F100813011F0863021F48091A6
:10357000F100809377028091E8008B778093E800D8
:103580000E94381D23C080919E02813AF9F48091F7
:10359000E800877F8093E8008091A2029091A302C7
:1035A000892B61F468E08FE692E070E00E94471C8E
:1035B0008091E8008B778093E800089560E090E0C8
:1035C00080E0F3CF80919D028111C1CF0895809159
:1035D0009E02813AD9F78091A2029091A302892B91
:1035E000A9F78091E800877F8093E8008091E80048
:1035F00080FFFCCF809123018093F1008091E8004F
:103600008E77BCCF80919E02813201F78091A20219
:103610009091A302892BD1F68091E800877F809357
:10362000E8000E94381D8091A002809323010E942F
:103630001107089580919E02813241F68091E80041
:10364000877F8093E8000E94381D8091A1028093BB
:103650007802089580919E02813A09F0B7CF809157
:10366000E800877F8093E8008091E80080FFFCCF2E
:1036700080917802C1CF84B7877F84BF0FB6F8945A
:10368000A89580916000886180936000109260002E
:103690000FBE80E890E00FB6F8948093610090939D
:1036A00061000FBE0E943C1708950E94881D0E9471
:1036B000E51DE2EEF0E080818460808378940E94D2
:1036C000642008958BE191E00E945916089580913D
:1036D0009D02853031F480919D02853019F00E9461
:1036E000B61708950E948B1780919B02882399F347
:1036F0000E944917882379F30E94E21B0E94110758
:10370000EACF08959A014091A4025091A5020E9427
:103710008A1B0895492F55274330510519F168F444
:103720004130510509F444C04230510509F445C007
:1037300090E080E050E040E025C04132510549F181
:1037400042325105A9F784E490E04FE853E0611557
:103750007105C1F082E390E04DE553E06130710501
:1037600089F0E6CF99278130910581F0009729F003
:103770000297F1F6ECEDF2E002C0ECE0F3E08491A8
:1037800090E0AF01F901518340830895EEEFF2E03C
:10379000F6CF89E090E042E253E06115710591F3C4
:1037A00089E090E04BE353E06130710559F3C0CFFD
:1037B00082E190E04BE453E0E5CF8BE390E040E121
:1037C00053E0E0CF80E189BD82E189BD09B400FE0C
:1037D000FDCF8091D8008F7D8093D8008091E0004C
:1037E00082608093E0008091E00081FDFCCF08952D
:1037F000AF92BF92CF92DF92FF920F931F93CF931E
:10380000DF936C01EB018A010E94571DF82E811194
:1038100023C00115110539F0F80180819181C81B81
:10382000D90BC80ED91EB12CA12C2097A9F08091DC
:10383000E80085FD22C08091E8008E778093E80043
:1038400001151105A1F0F80180819181A80EB91E22
:10385000B182A08285E0F82E8F2DDF91CF911F914C
:103860000F91FF90DF90CF90BF90AF9008950E948E
:10387000571D8823D1F2F82EEFCFF60181916F0109
:103880008093F1002197FFEFAF1ABF0ACECFFC0162
:103890008091A4029091A50286179707A0F0611568
:1038A000710529F49091E8009E779093E80090E0EC
:1038B0006115710551F4911108C08091E80082FFF3
:1038C00034C080E00895BC01F2CF80919D0288232E
:1038D000C1F18530C1F18091E80083FD30C0809155
:1038E000E80082FDEACF8091E80080FFE1CF80917F
:1038F000F3002091F200382F6115710519F028307E
:10390000310558F091E02830310509F090E0209120
:10391000E8002E772093E800CBCF81918093F100CF
:10392000615071092F5F3F4FE7CF80919D0288233F
:1039300041F0853041F08091E80083FFBECF81E007
:10394000089582E0089583E00895FC018091A40227
:103950009091A50286179707A0F06115710529F4CB
:103960008091E8008E778093E80090E06115710502
:1039700051F4911108C08091E80082FF35C080E0C9
:103980000895BC01F2CF80919D028823C9F1853052
:10399000C9F18091E80083FD31C08091E80082FD8B
:1039A000EACF8091E80080FFE1CF8091F300209181
:1039B000F200382F6115710519F02830310558F0E3
:1039C00091E02830310509F090E08091E8008E7791
:1039D0008093E800CBCF84918093F10031966150C1
:1039E00071092F5F3F4FE6CF80919D02882341F000
:1039F000853041F08091E80083FFBDCF81E00895DC
:103A000082E0089583E00895982F973028F08F7012
:103A10008093E90081E008959093E900242F762FA8
:103A200050E0981731F07091EC002091ED0050912A
:103A3000F00021FD02C09F5FE8CF3091EB003E7F98
:103A40003093EB003091ED003D7F3093ED003091ED
:103A5000EB0031603093EB007093EC002093ED00AD
:103A60005093F0002091EE0027FDE5CF80E008950F
:103A700080919E0287FF13C08091E80082FF06C0FC
:103A80008091E8008B778093E80004C080919D02CC
:103A90008111F2CF089580919D028823D9F38091FE
:103AA000E80080FFF8CF8091E8008E77ECCF20917E
:103AB000E4003091E50095E6A9012091EC00822F09
:103AC000817020FF06C08091E80080FF06C080E082
:103AD00008952091E80022FD1AC080919D0288235C
:103AE00089F0853089F08091EB0085FD0FC0209131
:103AF000E4003091E50042175307F9F29150E1F6E6
:103B000084E0089582E0089583E0089581E00895B7
:103B10000E94F71D0E94FF1DE0EEF0E080818160B1
:103B20008083E8EDF0E080818F77808319BCA7ED7A
:103B3000B0E08C918E7F8C9380818F7E80831092F9
:103B40009C0208950F931F93CF93DF930E94F71D5C
:103B50000E94FF1DC8EDD0E088818F77888388811F
:103B60008068888388818F7D888319BC10929D022C
:103B70001092990210929B0210929A0200EE10E0AD
:103B8000F80180818B7F808388818160888342E017
:103B900060E080E00E94041DE1EEF0E080818E7F15
:103BA0008083E2EEF0E080818160808380818860A4
:103BB0008083F80180818E7F808388818061888303
:103BC000DF91CF911F910F910895E8EDF0E0808192
:103BD0008F7E8083E7EDF0E080818160808384E0E8
:103BE00082BF81E080939C020E94A21D0895E8EDAF
:103BF000F0E080818E7F80831092E2000895109221
:103C0000DA001092E10008951F920F920FB60F9202
:103C100011242F933F934F935F936F937F938F93D1
:103C20009F93AF93BF93EF93FF938091E10082FF47
:103C30000BC08091E20082FF07C08091E1008B7F82
:103C40008093E1000E9463208091DA0080FF19C018
:103C50008091D80080FF15C08091DA008E7F80931C
:103C6000DA008091D90080FF96C080E189BD82E1B1
:103C700089BD09B400FEFDCF81E080939D020E94C2
:103C8000441A8091E10080FF19C08091E20080FF1A
:103C900015C08091E2008E7F8093E2008091E20067
:103CA00080618093E2008091D80080628093D80088
:103CB00019BC85E080939D020E94581A8091E10012
:103CC00084FF2BC08091E20084FF27C080E189BD82
:103CD00082E189BD89B5982F917080FFFBCF8091DB
:103CE000D8008F7D8093D8008091E1008F7E8093F3
:103CF000E1008091E2008F7E8093E2008091E200FB
:103D000081608093E20080919902882309F449C080
:103D100084E080939D020E94611A8091E10083FFFC
:103D200029C08091E20083FF25C08091E100877F58
:103D30008093E10082E080939D021092990280912D
:103D4000E1008E7F8093E1008091E2008E7F80937E
:103D5000E2008091E20080618093E20042E060E056
:103D600080E00E94041D8091F00088608093F00044
:103D70000E94551AFF91EF91BF91AF919F918F9142
:103D80007F916F915F914F913F912F910F900FBE57
:103D90000F901F90189519BC10929D020E94521A04
:103DA00070CF8091E30087FD93E090939D02B3CFA5
:103DB0001F920F920FB60F9211242F933F934F93A0
:103DC0005F936F937F938F939F93AF93BF93CF93A3
:103DD000DF93EF93FF93D091E900DF708091EC00C7
:103DE000C82FC17080FDC0E81092E9008091F000FA
:103DF000877F8093F00078940E941C1F1092E90046
:103E00008091F00088608093F000CD2BCF70C0933C
:103E1000E900FF91EF91DF91CF91BF91AF919F9119
:103E20008F917F916F915F914F913F912F910F9063
:103E30000FBE0F901F901895AAE2B0E0E2E2FFE1FA
:103E40000C94A6208EE992E02091F100FC012193D0
:103E5000CF01F2E0863A9F07B9F70E94811A80915C
:103E6000E80083FF1EC180919E0290919F029A30CC
:103E700008F017C1E92FF0E0E359FE4D0C949120B2
:103E8000803899F0823809F00CC18091A2028F70BD
:103E9000873008F006C18093E9008091EB0085FB34
:103EA000882780F91092E90006C080919A029091CB
:103EB0009B02911182609091E800977F9093E800B7
:103EC0008093F1001092F1008091E8008E77E5C0B8
:103ED000882309F4D3C0823009F0E3C08091A002A6
:103EE0008111D6C08091A2028F702FEF280F26304B
:103EF00008F0D7C08093E9002091EB0020FFC8C0F4
:103F0000933031F48091EB0080628093EB00C0C06D
:103F10009091EB0090619093EB0021E030E001C0C4
:103F2000220F8A95EAF72093EA001092EA00809126
:103F3000EB008860EACF8111B4C01091A0021F7716
:103F40008091E3008078812B8093E3008091E800EA
:103F5000877F8093E8000E94381D8091E80080FFF1
:103F6000FCCF8091E30080688093E30082E0111130
:103F700083E080939D0295C08058823008F091C004
:103F80008091A0029091A1028C3D23E09207A1F5BF
:103F900083E08A838AE289834FB7F894DE0113961F
:103FA00020E03EE051E2E32FF0E050935700E4912F
:103FB00020FF03C0E295EF703F5FEF708E2F90E01F
:103FC000EA30C0F0C7968D939D932F5F243159F747
:103FD0004FBF8091E800877F8093E8006AE270E03D
:103FE000CE0101960E94471C8091E8008B77809358
:103FF000E80057C0C096E7CF6091A2027091A3027B
:10400000AE014F5F5F4F0E94821BBC01892B09F4F8
:1040100048C09091E800977F9093E80089819A8149
:104020000E94A51CE1CF8038E1F58091E800877FF0
:104030008093E800809199028093F10045CF81112F
:1040400030C09091A002923060F58091E800877FA7
:104050008093E800909399020E94381D8091990204
:10406000882311F084E005C08091E30087FDFACF3A
:1040700081E080939D020E946C1A13C08091A0027F
:10408000813079F481E0933009F080E080939B02E5
:104090001092E9008091E800877F8093E8000E94F9
:1040A000381D8091E80083FF0AC08091E800877F77
:1040B0008093E8008091EB0080628093EB00AA96E9
:1040C000E3E00C94C2200895CF9380919D02882351
:1040D000A1F0C091E900CF709091EC00892F817020
:1040E00090FD80E8C82B1092E9008091E80083FDE4
:1040F0000E941C1FCF70C093E900CF9108950E94C9
:10410000881D10929D020895E8EDF0E080818061A5
:1041100080838AE18A95F1F700C08091D90081708F
:104120000895EE0FFF1F0590F491E02D09942F9252
:104130003F924F925F926F927F928F929F92AF9237
:10414000BF92CF92DF92EF92FF920F931F93CF9384
:10415000DF93CDB7DEB7CA1BDB0B0FB6F894DEBF1B
:104160000FBECDBF09942A88398848885F846E8441
:104170007D848C849B84AA84B984C884DF80EE808B
:10418000FD800C811B81AA81B981CE0FD11D0FB694
:10419000F894DEBF0FBECDBFED010895FB01DC0139
:1041A00004C08D910190801921F441505040C8F70E
:1041B000881B990B0895FB01DC0102C001900D9250
:1041C00041505040D8F70895F999FECF92BD81BD76
:1041D000F89A992780B50895A8E1B0E042E050E050
:1041E0000C942821DC01A40FB51F4150504048F029
:1041F000CB01840F951F2E910E9403214150504006
:10420000D0F70895262FF999FECF92BD81BDF89A77
:10421000019700B4021639F01FBA20BD0FB6F8940A
:10422000FA9AF99A0FBE08950396272F0E94032148
:104230000E940221252F0E940321242F0C94032188
:104240000196272F0E9403210C940221DC01CB014F
:10425000FC01F999FECF06C0F2BDE1BDF89A319696
:1042600000B40D9241505040B8F70895F894FFCF34
:104270001305130563056305C8054205420542059C
:10428000E405550664066406031577150B15D51469
:10429000D9140F15DD1413151F15E9147015ED143D
:1042A0002315F11427154F15F5142B155615FB146E
:1042B00031153915E1141715E5141B15FF143515C3
:1042C00045155F156E15CF1407157E153216381675
:1042D00021162C163E1644164A16401F681F512000
:0E42E000681F51209B1FBC1F512013201F2060
:1042EE002002010000000100000000000000050196
:1042FE000000000406000000000000011A301A043D
:10430E001A291A01E200E900EA00B500B600B7006A
:10431E00CD008301CC008A01920194012102230277
:10432E0024022502260227022A02B300B4006F00DF
:10433E0070009F01CB019F02A002818283E200E9FF
:10434E0000EA00B500B600B700CD008301CC008AAC
:10435E000192019401210223022402250226022742
:10436E00022A02B300B4006F0070009F01CB019FC0
:10437E0002A002818283F4F5F6F73133329497C6A8
:04438E003435470279
:00000001FF
